:08000000803102288731DD2F59
:1001F4000130080005300800200091110800240097
:10020400951208002100911108002400161408001A
:1002140024009614080024001615080024009615DE
:100224000800240011080800200091150800163069
:1002340021009900080024009616161608002400D0
:10024400961216160800F0007008240091000800A9
:100254002000BC10BB010E30080081310A2181311D
:100264000130080081310A218131023008008131D6
:100274000A2181310130080081310D2181310030A2
:1002840008008131212181310530080081311D218F
:1002940081310A30080081311D2181310930080083
:1002A4002000BC10BB010E30080000308231DD227A
:1002B400813108002400160E890C890C01390800CC
:1002C4002000911D662967296229080064008001C5
:1002D4000131890B69290034FE0012001E00FE0B57
:1002E4006F29003420003C10813110218131043009
:1002F400080020003C14363581312521813103303A
:10030400080020003C140314360D8131252181316D
:1003140005300800803024009400083095009601D0
:100324004F309200951208008F3025009300013061
:100334009200FF309100FC309E05080070302100CF
:100344009B0080309C009A019D011C1FAA29AB29A7
:10035400A72908007608F1007508F0007708F8006E
:100364007808F200003083315E2381310800C0290F
:100374008131622181318331D42381312000BC1841
:10038400C429C529BA29080001302900970096011B
:100394009801FF309400930120009110B03029009F
:1003A400950008002400951AD829D929E12980301C
:1003B40094000830950096014F309200951608007D
:1003C400FF340134013444347534743479342034C2
:1003D4003D34203458345834583458340034F300FD
:1003E4002000BC1DF629F729002A7308F2007208C0
:1003F400B7007108B9007008B800BC1108000230D9
:10040400F0000030F10079088131F12182310030AF
:10041400F500F600F7018131AC2182310430080087
:100424000130F0000030F10079088131F12182318E
:100434000030F500F600F7018131AC218231023041
:1004440008000230F0000030F10079088131F12118
:1004540082310030F500F600F7018131AC218231A0
:10046400023008000130F0000030F10079088131D9
:10047400F12182310030F500F600F7018131AC2121
:100484008231043008004434433420344D344F3432
:1004940054344F345234203453345034443420349C
:1004A400433454344C340034F100F0013A307102D6
:1004B40003185D2A5E2A662A30307102031C632AFF
:1004C400642A662AF001F00A700C0800FF30F00577
:1004D4000330F1052500131E702A712A762A06308E
:1004E400F035F10D890B722A7108920070089100A1
:1004F400080081318C21823185316025823181313E
:10050400A0218231813119218231813196218231B8
:1005140083311A2382318131C6218231080079085E
:1005240086008701403FF000413FF1007908023E18
:100534008600870101088131F12182310030F50004
:10054400F600F7018131AC2182310230080020002D
:10055400BE00B82A3E088600870101088331AB2318
:10056400823101302000BD003D08BE073E088600F0
:1005740087010108031DBF2AC02AAC2A0800F10123
:10058400F10A2000BC18C72AC82ADB2A3C11FF3014
:10059400F0007008B6008031FE20823181310421E0
:1005A400823181310121823120003B08F000700842
:1005B400F10071080800F800F901F90A2000BC18DC
:1005C400E42AE52AF92ABC14F90178080319EB2A6C
:1005D400EC2AEF2ABA01BA0AF32A0230F7007708A4
:1005E400BA008131072182318131B9218231790800
:1005F4000800F401F501701C002B012B052B720877
:10060400F4077308F53D0130F235F30D890B062B21
:100614000130F136F00C890B0B2B70087104031DAB
:10062400142B152BFD2A7508F1007408F00008003E
:10063400300093010530940020309500960120305D
:1006440097009801203099009A0120309B009C016A
:1006540014309D009E010F309F00283091002830F7
:1006640092008F0190018D018E0182309300080069
:1006740020003C100230F0007008BB00492B81318F
:10068400392183315D2B81313E2183315D2B2E084D
:10069400F0007008F9000430203E86008701413FD5
:1006A4008A00403F0A008331023A0319412B013A80
:1006B4000319412B452B0800F40070087104031939
:1006C400642B652B762B7435203E860087017008D9
:1006D400C03F7108C13F7208F30074082C3E8600C5
:1006E400870173088100832B7435203E86008701BF
:1006F400FA30C03F0030C13F74082C3E86008701A9
:10070400810108002000BC15942B813139218331EB
:10071400AA2B8131162183310330AA2B81313E214A
:100724008331AA2B2C08F0007008F90021088A00F4
:1007340020080A008331013A0319902B033A031964
:10074400872B013A0319872B073A03198B2B902B1C
:100754000800FB004030FA007A08FC007B08FA002D
:100764007A08FD003E30843133248331003A031982
:10077400BC2BBD2BB42B0230F0000030F1007C30D8
:100784008131F12183318131572183318231C12279
:100794008331013A0319CF2BD02BC82B5030890B4E
:1007A400D12B08008031FE20833120003C1CDB2B40
:1007B400DC2BE92B81315C218331003A0319E32BD3
:1007C400E42BE92B0F30F40074082000BA00200059
:1007D4003A08F400F501F435F50D38307407840057
:1007E4008830753D8500013F8A00003F0A0083314F
:1007F400F60076082000BA00080078087904031986
:10080400042C052C2E2CFD01FD0A112C0130F83589
:10081400F90D890B092C0130FC007C08FD07F91F38
:10082400142C152C082C79087B02031D1B2C78082A
:100834007A02031C1E2C1F2C232C7808FA02790838
:10084400FB3B0130F936F80C890B242C0130FD02F6
:10085400031D2D2C2E2C152C7B08F9007A08F8008A
:100864000800F100F201F20A20003C193A2C3B2C5A
:100874006B2C7108F0007008B600BC103C153C10DD
:100884000E30F0007008BA00F430B4000130B50046
:10089400BC15FA30A0000030A100AC01FA30A2006F
:1008A4000030A300AD01FA30A4000030A500AE0171
:1008B400FA30A6000030A700AF01FC30A8000030D9
:1008C400A900B0018031FE2084318131D4218431EA
:1008D400F20172080800FD00FB017D08FA007A08A5
:1008E400FC003E30843133248431003A03197B2CDC
:1008F4007C2C732C0230F0000030F1007B3081310D
:10090400F12184318131572184318231C1228431F2
:10091400013A03198E2C8F2C872C7D030319932CF9
:10092400942C9A2C02307D06031D992C9A2CA32C0E
:100934001530FA00C630890B9D2CFA0B9D2C003221
:10094400A62C5030890BA42C0800F501F601700880
:1009540071040319AE2CAF2CDE2CF701F70ABB2C63
:100964000130F035F10D890BB32C0130F40074081B
:10097400F707F11FBE2CBF2CB22C0130F535F60D54
:10098400890BC02C71087302031DCA2C70087202F3
:10099400031CCD2CCE2CD32C7008F2027108F33B2F
:1009A40075140130F136F00C890BD42C0130F702A8
:1009B400031DDD2CDE2CBF2C7608F1007508F00039
:1009C4000800813113218431F000200037088600AB
:1009D4008701700881000130F0007008B70701300A
:1009E400B8020030B93B380839040319FA2CFB2C3F
:1009F400002D8131212184310530202DBC150A2D93
:100A040081314D218431202D813148218431202DA3
:100A14002C08F0007008F90021088A0020080A0058
:100A24008531013A0319062D033A0319022D013ABF
:100A34000319022D073A0319062D062D0800073065
:100A44002000BE001730BD006A30890B272DBD0B76
:100A5400272DBE0B272D0000383084316D248531BD
:100A6400393084316D248531143084316D248531DD
:100A7400783084316D2485315D3084316D24853145
:100A84006B3084316D2485310D302000BE002D3053
:100A9400BD00D730890B4C2DBD0B4C2DBE0B4C2DFE
:100AA4000032383084316D2485310C3084316D242A
:100AB4008531013084316D248531080022008C0198
:100AC4008D018E010830210090003F308C00ED3004
:100AD4008D00FC308E00E43023008E000D308D003C
:100AE4003F308C00240090018D018C018E01210087
:100AF400971725008C018D018E01FF3026008C0094
:100B0400FF308D00FF308E003F3027008C00F03026
:100B14008D00FF308E000E303D0097001030A00095
:100B240014303C00BB0021303D00A3000F30A10075
:100B34002230A4000D30960013303C00BA000800A7
:100B440081315C218531003A0319A92DAA2DD22DBA
:100B5400B72D81312F218531F52D81313421853116
:100B6400F52D81313E218531F52D20002F08F1002E
:100B74007108F9000630203E86008701413F8A0053
:100B8400403F0A008531013A0319B32D033A031992
:100B9400AB2D013A0319AF2D073A0319B32DB32D29
:100BA40020003C101730203E86008701403F84001F
:100BB4008501810A00088131252185310130200019
:100BC400B8020030B93B38083904031DEA2DEB2D77
:100BD400F02D0630F2000030F300F42D0330F20063
:100BE4000030F3007208080082317B228531220034
:100BF4008D1068302000CE00E430890BFF2DCE0B21
:100C0400FF2D000022008D1485312125853180308F
:100C140084316D248531A0308231A92285313000A0
:100C24001308F8390238930062302000BD00883080
:100C3400BE005108C0005008BF00533086318026E2
:100C44008531C03084316D24853153308231A922FD
:100C5400853103302000CF000830CE007730890B77
:100C6400312ECE0B312ECF0B312E20008D1A3B2E80
:100C74003C2E162E5203031D402E412E652E0430A9
:100C840051020030031950020318492E4A2E632ED4
:100C940022000D1620005108F1005008F0008231A6
:100CA4006822853101302000D0070030D13D683002
:100CB4002000CE00E430890B5D2ECE0B5D2E0000AB
:100CC400162ED201162E5008510403196A2E6B2ECB
:100CD4007B2E22000D1220005108F1005008F00074
:100CE40082316822853101302000D0020030D13BAE
:100CF400592ED201D20A162E803102282000CC00AF
:100D04003F30C1004108C500C42F25304D060319EA
:100D14008C2E8D2E992E4D08C1004C08860087011B
:100D2400410881000130C1004108CC07C42FCA0129
:100D3400CB01C7013D0884003E08850000088231CC
:100D440056228631031CA72EA82EDB2E2000CA01B2
:100D5400CB010A30F0000030F10020004B08F30012
:100D64004A08F2008231FB22863171082000CB0050
:100D74007008CA003D0884003E0885000008D03E83
:100D8400C100FF3003180030C2004108CA074208FE
:100D9400CB3D0130BD070030BE3D3D0884003E0818
:100DA400850000088231562286310318DA2EDB2EA4
:100DB400AB2E20003E08C2003D08C100BD0A031945
:100DC400BE0A41088400420885000008CD00003AAC
:100DD4000319D82F643A0319F32E0D3A0319F32E8D
:100DE400C42F450886008701403FC800413FC90021
:100DF4000230C1004108C507C91F012F022F0B2F64
:100E04000330C1004108C704C809C909C80A031945
:100E1400C90ACD01CD0A4D08C100C201C135C20DB8
:100E24005830410784008830423D8500003FC300AC
:100E3400013FC40044084902031D222F430848020D
:100E44000318252F262F272F312F0130C1004108E9
:100E5400CD0705304D06031D302F312F0D2F4A08C5
:100E64004B040319362F372F412F47080339031931
:100E74003C2F3D2F412FFF30CA07FF30CB3D4B089D
:100E8400803A803C031D482F4A084D0203184B2F1B
:100E94004C2F552F20004D08C100C2014108CA0241
:100EA4004208CB3B582F2000CA01CB014A084B040F
:100EB40003195D2F5E2F732F2030C1004C0886006C
:100EC4008701410881000130C1004108CC07FF308F
:100ED400CA07FF30CB3D4A084B04031D722F732F02
:100EE4005E2F470803390319782F792F842F2D306B
:100EF400C1004C0886008701410881000130C1000F
:100F04004108CC074D08C1004108C600BB2F0A3078
:100F1400F8000030F9004608C100C201C135C20D15
:100F24005830410784008830423D8500003FF0007E
:100F3400013FF1004908F3004808F2008431A72476
:100F440086317108FB007008FA008331FF23863173
:100F54007808303E2000C3004308CD004D08C1008E
:100F64004C0886008701410881000130C100410816
:100F7400CC07FF30C1004108C607460A031DC32F32
:100F8400C42F892F3E08C2003D08C100BD0A0319C1
:100F9400BE0A41088400420885000008C3004308D3
:100FA400CD004D08031DD72FD82F872E4C0886005F
:100FB400870181010800E2308400813085005030CF
:100FC4008600003087000F3081316E218731453033
:100FD400840082308500A030860000308700113004
:100FE40081316E21873120308400003085001D302E
:100FF40081316821873120008531F62D0034003499
:101004001034003402340034103400340434003416
:1010140010340034063400341034003407340034FF
:1010240010340034073400340834003407340034F6
:101034001834003409340034103400340B340034D0
:10104400103400340D340034023400340D340034D0
:10105400123400340D3400341A3400340D340034A6
:101064001E3400340F340034103400342A34013474
:10107400833401347B340134A2340534E33404343E
:1010840074340134843403342F340134343401345B
:10109400393401343E3401344334013448340134A6
:1010A4004D340134523401343A34033401340034BD
:1010B4000A34003464340034E834033410342734FC
:1010C400443475347434793420343D342034253434
:0610D400343464340034E2
:020000040001F9
:04000E00E43FFF1FAD
:00000001FF
