:08000000803102288731DD2F59
:1001EA0001300800053008002000911108002400A1
:1001FA009512080021009111080024001614080025
:10020A0024009614080024001615080024009615E8
:10021A000800240011080800200091150800163073
:10022A0021009900080024009616161608002400DA
:10023A00961216160800F0007008240091000800B3
:10024A002000BC10BB010E3008008131052181312C
:10025A0001300800813105218131023008008131E5
:10026A0005218131013008008131082181310030B6
:10027A00080081311C2181310530080081311821A3
:10028A0081310A3008008131182181310930080092
:10029A002000BC10BB010E30080000308231D82289
:1002AA00813108002400160E890C890C01390800D6
:1002BA002000911D612962295D29080064008001DE
:1002CA000131890B64290034FE0012001E00FE0B66
:1002DA006A29003420003C1081310B21813104301D
:1002EA00080020003C143635813120218131033049
:1002FA00080020003C140314360D8131202181317D
:10030A0005300800803024009400083095009601DA
:10031A004F309200951208008F302500930001306B
:10032A009200FF309100FC309E05080070302100D9
:10033A009B0080309C009A019D011C1FA529A629BB
:10034A00A22908007608F1007508F0007708F8007D
:10035A007808F200003083315A2381310800BB2922
:10036A0081315D2181318331D12381312000BC1853
:10037A00BF29C029B5290800013029009700960134
:10038A009801FF309400930120009110B0302900A9
:10039A00950008002400951AD329D429DC29803035
:1003AA0094000830950096014F3092009516080087
:1003BA00FF340134013444347534743479342034CC
:1003CA003D34203458345834583458340034F30007
:1003DA002000BC1DF129F229FB297308F2007208DA
:1003EA00B7007108B9007008B800BC1108000230E3
:1003FA00F0000030F10079088131EC2181310030C0
:10040A00F500F600F7018131A72181310430080097
:10041A000130F0000030F10079088131EC2182319D
:10042A000030F500F600F7018131A7218231023050
:10043A0008000230F0000030F10079088131EC2127
:10044A0082310030F500F600F7018131A7218231AF
:10045A00023008000130F0000030F10079088131E3
:10046A00EC2182310030F500F600F7018131A72135
:10047A008231043008004434433420344D344F343C
:10048A0054344F34523420345334503444342034A6
:10049A00433454344C340034F100F0013A307102E0
:1004AA000318582A592A612A30307102031C5E2A1D
:1004BA005F2A612AF001F00A700C0800FF30F0058B
:1004CA000330F1052500131E6B2A6C2A712A0630A7
:1004DA00F035F10D890B6D2A7108920070089100B0
:1004EA00080081318721823185316025823181314D
:1004FA009B218231813114218231813191218231D2
:10050A008331162382318131C12182310800790871
:10051A0086008701403FF000413FF1007908023E22
:10052A008600870101088131EC2182310030F50013
:10053A00F600F7018131A72182310230080020003C
:10054A00C700B32A47088600870101088331A72319
:10055A00823101302000C6004608C70747088600D6
:10056A0087010108031DBA2ABB2AA72A0800F1013C
:10057A00F10A2000BC18C22AC32AD62A3C11FF302D
:10058A00F0007008B6008031F92082318031FF20F6
:10059A0082318031FC20823120003B08F000700853
:1005AA00F100710808002000C000C101C10ABC188E
:1005BA00DF2AE02AF42ABC14C10140080319E62AFA
:1005CA00E72AEA2ABA01BA0AEE2A0230FD007D08B1
:1005DA00BA008131022182318131B4218231200075
:1005EA0041080800F401F501701CFC2AFD2A012BC0
:1005FA007208F4077308F53D0130F235F30D890BE3
:10060A00022B0130F136F00C890B072B70087104AC
:10061A00031D102B112BF92A7508F1007408F0003C
:10062A0008003000930105309400203095009601AF
:10063A00203097009801203099009A0120309B00C1
:10064A009C0114309D009E010F309F0028309100BC
:10065A00283092008F0190018D018E018230930023
:10066A00080020003C100230FA007A08BB00452B33
:10067A00813134218331592B813139218331592BED
:10068A002E08FA007A08F9000430203E8600870115
:10069A00413F8A00403F0A008331023A03193D2B49
:1006AA00013A03193D2B412B0800F400700871042C
:1006BA000319602B612B722B7435203E860087014B
:1006CA007008C03F7108C13F7208F30074082C3EDD
:1006DA0086008701730881007F2B7435203E8600CF
:1006EA008701F530C03F0030C13F74082C3E8600B8
:1006FA008701810108002000BC15902B813134212B
:10070A008331A62B8131112183310330A62B81310C
:10071A0039218331A62B2C08FA007A08F90021081E
:10072A008A0020080A008331013A03198C2B033A04
:10073A000319832B013A0319832B073A0319872BD1
:10074A008C2B08002000C3004030C2004208C400BD
:10075A004308C2004208C5003E3084313024833148
:10076A00003A0319B92BBA2BB12B0230F000003032
:10077A00F10044308131EC218331813152218331BE
:10078A008231BC228331013A0319CC2BCD2BC52BE4
:10079A005030890BCE2B08008031F920833120009C
:1007AA003C1CD82BD92BE62B813157218331003AB7
:1007BA000319E02BE12BE62B0F302000BD003D088A
:1007CA00BA0020003A08BD00BE01BD35BE0D383062
:1007DA003D07840088303E3D8500013F8A00003F86
:1007EA000A0083312000BF003F08BA0008007808D9
:1007FA0079040319012C022C2B2CFD01FD0A0E2C65
:10080A000130F835F90D890B062C0130FC007C0803
:10081A00FD07F91F112C122C052C79087B02031DE8
:10082A00182C78087A02031C1B2C1C2C202C780804
:10083A00FA027908FB3B0130F936F80C890B212CB6
:10084A000130FD02031D2A2C2B2C122C7B08F900E7
:10085A007A08F8000800F100F201F20A20003C19B7
:10086A00372C382C682C7108F0007008B600BC10C0
:10087A003C153C100E30F0007008BA00F430B40099
:10088A000130B500BC15F530A0000030A100AC0164
:10089A00F530A2000030A300AD01F530A40000300D
:1008AA00A500AE01F530A6000030A700AF01F73071
:1008BA00A8000030A900B0018031F92084318131CB
:1008CA00CF218431F20172080800F501F60170089F
:1008DA0071040319712C722CA12CF701F70A7E2CD2
:1008EA000130F035F10D890B762C0130F4007408D3
:1008FA00F707F11F812C822C752C0130F535F60D86
:10090A00890B832C71087302031D8D2C70087202E7
:10091A00031C902C912C962C7008F2027108F33B60
:10092A0075140130F136F00C890B972C0130F7025F
:10093A00031DA02CA12C822C7608F1007508F0006A
:10094A0008002000C500C3014508C2004208C400CF
:10095A003E30843130248431003A0319B52CB62C48
:10096A00AD2C0230F0000030F10043308131EC212F
:10097A0084318131522184318231BC228431013A5D
:10098A000319C82CC92CC12C200045030319CE2CED
:10099A00CF2CD52C02304506031DD42CD52CDF2CA8
:1009AA0015302000C200C630890BD92CC20BD92CB5
:1009BA000000E22C5030890BE02C080081310E2116
:1009CA008431FA0020003708860087017A088100FE
:1009DA000130FA007A08B7070130B8020030B93B93
:1009EA00380839040319FA2CFB2C002D81311C21FB
:1009FA0084310530202DBC150A2D813148218431DE
:100A0A00202D813143218431202D2C08FA007A08C7
:100A1A00F90021088A0020080A008531013A0319E1
:100A2A00062D033A0319022D013A0319022D073A3A
:100A3A000319062D062D080007302000C7001730BD
:100A4A00C6006A30890B272DC60B272DC70B272D09
:100A5A00000038308431A624853139308431A62407
:100A6A00853114308431A624853178308431A62426
:100A7A0085315D308431A62485316B308431A624DA
:100A8A0085310D302000C7002D30C600D730890BC4
:100A9A004C2DC60B4C2DC70B4C2D003238308431EF
:100AAA00A62485310C308431A62485310130843165
:100ABA00A6248531080022008C018D018E010830A0
:100ACA00210090003F308C00ED308D00FC308E000C
:100ADA00E43023008E000D308D003F308C0024005E
:100AEA0090018D018C018E012100971725008C0140
:100AFA008D018E01FF3026008C00FF308D00FF3003
:100B0A008E003F3027008C00F0308D00FF308E00C1
:100B1A000E303D0097001030A00014303C00BB009E
:100B2A0021303D00A3000F30A1002230A4000D3077
:100B3A00960013303C00BA000800813157218531F4
:100B4A00003A0319A92DAA2DD22DB72D81312A21B8
:100B5A008531F52D81312F218531F52D81313921CD
:100B6A008531F52D20002F08FA007A08F9000630A1
:100B7A00203E86008701413F8A00403F0A008531B6
:100B8A00013A0319B32D033A0319AB2D013A03199C
:100B9A00AF2D073A0319B32DB32D20003C1017309F
:100BAA00203E86008701403F84008501810A0008B3
:100BBA0081312021853101302000B8020030B93B53
:100BCA0038083904031DEA2DEB2DF02D0630FB0001
:100BDA000030FC00F42D0330FB000030FC007B08E1
:100BEA00080082317622853122008D10683020007B
:100BFA00CE00E430890BFF2DCE0BFF2D0000220022
:100C0A008D1485312125853180308431A6248531A2
:100C1A00A0308231A422853130001308F839023815
:100C2A00930062302000BD008830BE005108C00029
:100C3A005008BF005330863180268531C030843158
:100C4A00A624853153308231A42285310330200015
:100C5A00CF000830CE007730890B312ECE0B312EE3
:100C6A00CF0B312E20008D1A3B2E3C2E162E52030E
:100C7A00031D402E412E652E043051020030031907
:100C8A0050020318492E4A2E632E22000D16200008
:100C9A005108F1005008F000823163228531013099
:100CAA002000D0070030D13D68302000CE00E4306B
:100CBA00890B5D2ECE0B5D2E0000162ED201162E4C
:100CCA005008510403196A2E6B2E7B2E22000D1236
:100CDA0020005108F1005008F0008231632285316A
:100CEA0001302000D0020030D13B592ED201D20A65
:100CFA00162E803102282000CC003F30C100410866
:100D0A00C500C42F25304D0603198C2E8D2E992E21
:100D1A004D08C1004C088600870141088100013056
:100D2A00C1004108CC07C42FCA01CB01C7013D0845
:100D3A0084003E0885000008823151228631031C56
:100D4A00A72EA82EDB2E2000CA01CB010A30F00004
:100D5A000030F10020004B08F3004A08F20082310B
:100D6A00F722863171082000CB007008CA003D08BE
:100D7A0084003E0885000008D03EC100FF300318F9
:100D8A000030C2004108CA074208CB3D0130BD0706
:100D9A000030BE3D3D0884003E08850000088231CF
:100DAA00512286310318DA2EDB2EAB2E20003E08A4
:100DBA00C2003D08C100BD0A0319BE0A41088400E9
:100DCA00420885000008CD00003A0319D82F643A7A
:100DDA000319F32E0D3A0319F32EC42F4508860082
:100DEA008701403FC800413FC9000230C1004108A5
:100DFA00C507C91F012F022F0B2F0330C10041085D
:100E0A00C704C809C909C80A0319C90ACD01CD0A04
:100E1A004D08C100C201C135C20D583041078400D6
:100E2A008830423D8500003FC300013FC4004408AA
:100E3A004902031D222F430848020318252F262F93
:100E4A00272F312F0130C1004108CD0705304D064B
:100E5A00031D302F312F0D2F4A084B040319362F4B
:100E6A00372F412F4708033903193C2F3D2F412FB4
:100E7A00FF30CA07FF30CB3D4B08803A803C031D48
:100E8A00482F4A084D0203184B2F4C2F552F20008C
:100E9A004D08C100C2014108CA024208CB3B582F83
:100EAA002000CA01CB014A084B0403195D2F5E2FAB
:100EBA00732F2030C1004C08860087014108810049
:100ECA000130C1004108CC07FF30CA07FF30CB3DD3
:100EDA004A084B04031D722F732F5E2F47080339EC
:100EEA000319782F792F842F2D30C1004C088600E2
:100EFA008701410881000130C1004108CC074D0833
:100F0A00C1004108C600BB2F0A30F8000030F900C2
:100F1A004608C100C201C135C20D583041078400DC
:100F2A008830423D8500003FF000013FF10049084A
:100F3A00F3004808F20084316A2486317108FB0004
:100F4A007008FA008331FC2386317808303E20008D
:100F5A00C3004308CD004D08C1004C088600870134
:100F6A00410881000130C1004108CC07FF30C100AF
:100F7A004108C607460A031DC32FC42F892F3E08FE
:100F8A00C2003D08C100BD0A0319BE0A4108840017
:100F9A00420885000008C3004308CD004D08031D20
:100FAA00D72FD82F872E4C08860087018101080089
:100FBA00DD308400813085005030860000308700A3
:100FCA000F308131692187314030840082308500B9
:100FDA00A0308600003087001130813169218731C5
:100FEA0020308400003085001D3081316321873133
:100FFA0020008531F62D00340034103400340234D8
:10100A00003410340034043400341034003406340C
:10101A0000341034003407340034103400340734F8
:10102A0000340834003407340034183400340934E6
:10103A000034103400340B340034103400340D34CE
:10104A000034023400340D340034123400340D34C8
:10105A0000341A3400340D3400341E3400340F3492
:10106A00003410340034253401347E3401347634AB
:10107A000134A2340534E33404346F340134803447
:10108A0003342A3401342F340134343401343934EA
:10109A0001343E34013443340134483401344D348C
:1010AA00013436340334013400340A3400346434ED
:1010BA000034E83403341034273444347534743437
:1010CA00793420343D3420342534343464340034C3
:020000040001F9
:04000E00E43FFF1FAD
:00000001FF
